{
  "abi": [
    {
      "type": "constructor",
      "inputs": [
        {
          "name": "name",
          "type": "string",
          "internalType": "string"
        },
        {
          "name": "symbol",
          "type": "string",
          "internalType": "string"
        },
        {
          "name": "baseURI",
          "type": "string",
          "internalType": "string"
        },
        {
          "name": "initialOwner",
          "type": "address",
          "internalType": "address"
        }
      ],
      "stateMutability": "nonpayable"
    },
    {
      "type": "function",
      "name": "DOMAIN_SEPARATOR",
      "inputs": [],
      "outputs": [
        {
          "name": "",
          "type": "bytes32",
          "internalType": "bytes32"
        }
      ],
      "stateMutability": "view"
    },
    {
      "type": "function",
      "name": "approve",
      "inputs": [
        {
          "name": "to",
          "type": "address",
          "internalType": "address"
        },
        {
          "name": "tokenId",
          "type": "uint256",
          "internalType": "uint256"
        }
      ],
      "outputs": [],
      "stateMutability": "nonpayable"
    },
    {
      "type": "function",
      "name": "balanceOf",
      "inputs": [
        {
          "name": "owner",
          "type": "address",
          "internalType": "address"
        }
      ],
      "outputs": [
        {
          "name": "",
          "type": "uint256",
          "internalType": "uint256"
        }
      ],
      "stateMutability": "view"
    },
    {
      "type": "function",
      "name": "burn",
      "inputs": [
        {
          "name": "tokenId",
          "type": "uint256",
          "internalType": "uint256"
        }
      ],
      "outputs": [],
      "stateMutability": "nonpayable"
    },
    {
      "type": "function",
      "name": "burnWithPermit",
      "inputs": [
        {
          "name": "from",
          "type": "address",
          "internalType": "address"
        },
        {
          "name": "tokenId",
          "type": "uint256",
          "internalType": "uint256"
        },
        {
          "name": "deadline",
          "type": "uint256",
          "internalType": "uint256"
        },
        {
          "name": "v",
          "type": "uint8",
          "internalType": "uint8"
        },
        {
          "name": "r",
          "type": "bytes32",
          "internalType": "bytes32"
        },
        {
          "name": "s",
          "type": "bytes32",
          "internalType": "bytes32"
        }
      ],
      "outputs": [],
      "stateMutability": "nonpayable"
    },
    {
      "type": "function",
      "name": "eip712Domain",
      "inputs": [],
      "outputs": [
        {
          "name": "fields",
          "type": "bytes1",
          "internalType": "bytes1"
        },
        {
          "name": "name",
          "type": "string",
          "internalType": "string"
        },
        {
          "name": "version",
          "type": "string",
          "internalType": "string"
        },
        {
          "name": "chainId",
          "type": "uint256",
          "internalType": "uint256"
        },
        {
          "name": "verifyingContract",
          "type": "address",
          "internalType": "address"
        },
        {
          "name": "salt",
          "type": "bytes32",
          "internalType": "bytes32"
        },
        {
          "name": "extensions",
          "type": "uint256[]",
          "internalType": "uint256[]"
        }
      ],
      "stateMutability": "view"
    },
    {
      "type": "function",
      "name": "getApproved",
      "inputs": [
        {
          "name": "tokenId",
          "type": "uint256",
          "internalType": "uint256"
        }
      ],
      "outputs": [
        {
          "name": "",
          "type": "address",
          "internalType": "address"
        }
      ],
      "stateMutability": "view"
    },
    {
      "type": "function",
      "name": "isApprovedForAll",
      "inputs": [
        {
          "name": "owner",
          "type": "address",
          "internalType": "address"
        },
        {
          "name": "operator",
          "type": "address",
          "internalType": "address"
        }
      ],
      "outputs": [
        {
          "name": "",
          "type": "bool",
          "internalType": "bool"
        }
      ],
      "stateMutability": "view"
    },
    {
      "type": "function",
      "name": "name",
      "inputs": [],
      "outputs": [
        {
          "name": "",
          "type": "string",
          "internalType": "string"
        }
      ],
      "stateMutability": "view"
    },
    {
      "type": "function",
      "name": "nonces",
      "inputs": [
        {
          "name": "owner",
          "type": "address",
          "internalType": "address"
        }
      ],
      "outputs": [
        {
          "name": "",
          "type": "uint256",
          "internalType": "uint256"
        }
      ],
      "stateMutability": "view"
    },
    {
      "type": "function",
      "name": "owner",
      "inputs": [],
      "outputs": [
        {
          "name": "",
          "type": "address",
          "internalType": "address"
        }
      ],
      "stateMutability": "view"
    },
    {
      "type": "function",
      "name": "ownerOf",
      "inputs": [
        {
          "name": "tokenId",
          "type": "uint256",
          "internalType": "uint256"
        }
      ],
      "outputs": [
        {
          "name": "",
          "type": "address",
          "internalType": "address"
        }
      ],
      "stateMutability": "view"
    },
    {
      "type": "function",
      "name": "permit",
      "inputs": [
        {
          "name": "owner",
          "type": "address",
          "internalType": "address"
        },
        {
          "name": "spender",
          "type": "address",
          "internalType": "address"
        },
        {
          "name": "tokenId",
          "type": "uint256",
          "internalType": "uint256"
        },
        {
          "name": "deadline",
          "type": "uint256",
          "internalType": "uint256"
        },
        {
          "name": "v",
          "type": "uint8",
          "internalType": "uint8"
        },
        {
          "name": "r",
          "type": "bytes32",
          "internalType": "bytes32"
        },
        {
          "name": "s",
          "type": "bytes32",
          "internalType": "bytes32"
        }
      ],
      "outputs": [],
      "stateMutability": "nonpayable"
    },
    {
      "type": "function",
      "name": "permitForAll",
      "inputs": [
        {
          "name": "owner",
          "type": "address",
          "internalType": "address"
        },
        {
          "name": "operator",
          "type": "address",
          "internalType": "address"
        },
        {
          "name": "approved",
          "type": "bool",
          "internalType": "bool"
        },
        {
          "name": "deadline",
          "type": "uint256",
          "internalType": "uint256"
        },
        {
          "name": "v",
          "type": "uint8",
          "internalType": "uint8"
        },
        {
          "name": "r",
          "type": "bytes32",
          "internalType": "bytes32"
        },
        {
          "name": "s",
          "type": "bytes32",
          "internalType": "bytes32"
        }
      ],
      "outputs": [],
      "stateMutability": "nonpayable"
    },
    {
      "type": "function",
      "name": "renounceOwnership",
      "inputs": [],
      "outputs": [],
      "stateMutability": "nonpayable"
    },
    {
      "type": "function",
      "name": "safeMint",
      "inputs": [
        {
          "name": "to",
          "type": "address",
          "internalType": "address"
        },
        {
          "name": "tokenId",
          "type": "uint256",
          "internalType": "uint256"
        }
      ],
      "outputs": [],
      "stateMutability": "nonpayable"
    },
    {
      "type": "function",
      "name": "safeTransferFrom",
      "inputs": [
        {
          "name": "from",
          "type": "address",
          "internalType": "address"
        },
        {
          "name": "to",
          "type": "address",
          "internalType": "address"
        },
        {
          "name": "tokenId",
          "type": "uint256",
          "internalType": "uint256"
        }
      ],
      "outputs": [],
      "stateMutability": "nonpayable"
    },
    {
      "type": "function",
      "name": "safeTransferFrom",
      "inputs": [
        {
          "name": "from",
          "type": "address",
          "internalType": "address"
        },
        {
          "name": "to",
          "type": "address",
          "internalType": "address"
        },
        {
          "name": "tokenId",
          "type": "uint256",
          "internalType": "uint256"
        },
        {
          "name": "data",
          "type": "bytes",
          "internalType": "bytes"
        }
      ],
      "outputs": [],
      "stateMutability": "nonpayable"
    },
    {
      "type": "function",
      "name": "setApprovalForAll",
      "inputs": [
        {
          "name": "operator",
          "type": "address",
          "internalType": "address"
        },
        {
          "name": "approved",
          "type": "bool",
          "internalType": "bool"
        }
      ],
      "outputs": [],
      "stateMutability": "nonpayable"
    },
    {
      "type": "function",
      "name": "setBaseURI",
      "inputs": [
        {
          "name": "baseURI",
          "type": "string",
          "internalType": "string"
        }
      ],
      "outputs": [],
      "stateMutability": "nonpayable"
    },
    {
      "type": "function",
      "name": "supportsInterface",
      "inputs": [
        {
          "name": "interfaceId",
          "type": "bytes4",
          "internalType": "bytes4"
        }
      ],
      "outputs": [
        {
          "name": "",
          "type": "bool",
          "internalType": "bool"
        }
      ],
      "stateMutability": "view"
    },
    {
      "type": "function",
      "name": "symbol",
      "inputs": [],
      "outputs": [
        {
          "name": "",
          "type": "string",
          "internalType": "string"
        }
      ],
      "stateMutability": "view"
    },
    {
      "type": "function",
      "name": "tokenByIndex",
      "inputs": [
        {
          "name": "index",
          "type": "uint256",
          "internalType": "uint256"
        }
      ],
      "outputs": [
        {
          "name": "",
          "type": "uint256",
          "internalType": "uint256"
        }
      ],
      "stateMutability": "view"
    },
    {
      "type": "function",
      "name": "tokenOfOwnerByIndex",
      "inputs": [
        {
          "name": "owner",
          "type": "address",
          "internalType": "address"
        },
        {
          "name": "index",
          "type": "uint256",
          "internalType": "uint256"
        }
      ],
      "outputs": [
        {
          "name": "",
          "type": "uint256",
          "internalType": "uint256"
        }
      ],
      "stateMutability": "view"
    },
    {
      "type": "function",
      "name": "tokenURI",
      "inputs": [
        {
          "name": "tokenId",
          "type": "uint256",
          "internalType": "uint256"
        }
      ],
      "outputs": [
        {
          "name": "",
          "type": "string",
          "internalType": "string"
        }
      ],
      "stateMutability": "view"
    },
    {
      "type": "function",
      "name": "totalSupply",
      "inputs": [],
      "outputs": [
        {
          "name": "",
          "type": "uint256",
          "internalType": "uint256"
        }
      ],
      "stateMutability": "view"
    },
    {
      "type": "function",
      "name": "transferFrom",
      "inputs": [
        {
          "name": "from",
          "type": "address",
          "internalType": "address"
        },
        {
          "name": "to",
          "type": "address",
          "internalType": "address"
        },
        {
          "name": "tokenId",
          "type": "uint256",
          "internalType": "uint256"
        }
      ],
      "outputs": [],
      "stateMutability": "nonpayable"
    },
    {
      "type": "function",
      "name": "transferOwnership",
      "inputs": [
        {
          "name": "newOwner",
          "type": "address",
          "internalType": "address"
        }
      ],
      "outputs": [],
      "stateMutability": "nonpayable"
    },
    {
      "type": "function",
      "name": "transferWithPermit",
      "inputs": [
        {
          "name": "from",
          "type": "address",
          "internalType": "address"
        },
        {
          "name": "to",
          "type": "address",
          "internalType": "address"
        },
        {
          "name": "tokenId",
          "type": "uint256",
          "internalType": "uint256"
        },
        {
          "name": "deadline",
          "type": "uint256",
          "internalType": "uint256"
        },
        {
          "name": "v",
          "type": "uint8",
          "internalType": "uint8"
        },
        {
          "name": "r",
          "type": "bytes32",
          "internalType": "bytes32"
        },
        {
          "name": "s",
          "type": "bytes32",
          "internalType": "bytes32"
        }
      ],
      "outputs": [],
      "stateMutability": "nonpayable"
    },
    {
      "type": "event",
      "name": "Approval",
      "inputs": [
        {
          "name": "owner",
          "type": "address",
          "indexed": true,
          "internalType": "address"
        },
        {
          "name": "approved",
          "type": "address",
          "indexed": true,
          "internalType": "address"
        },
        {
          "name": "tokenId",
          "type": "uint256",
          "indexed": true,
          "internalType": "uint256"
        }
      ],
      "anonymous": false
    },
    {
      "type": "event",
      "name": "ApprovalForAll",
      "inputs": [
        {
          "name": "owner",
          "type": "address",
          "indexed": true,
          "internalType": "address"
        },
        {
          "name": "operator",
          "type": "address",
          "indexed": true,
          "internalType": "address"
        },
        {
          "name": "approved",
          "type": "bool",
          "indexed": false,
          "internalType": "bool"
        }
      ],
      "anonymous": false
    },
    {
      "type": "event",
      "name": "EIP712DomainChanged",
      "inputs": [],
      "anonymous": false
    },
    {
      "type": "event",
      "name": "OwnershipTransferred",
      "inputs": [
        {
          "name": "previousOwner",
          "type": "address",
          "indexed": true,
          "internalType": "address"
        },
        {
          "name": "newOwner",
          "type": "address",
          "indexed": true,
          "internalType": "address"
        }
      ],
      "anonymous": false
    },
    {
      "type": "event",
      "name": "PermitForAllUsed",
      "inputs": [
        {
          "name": "owner",
          "type": "address",
          "indexed": true,
          "internalType": "address"
        },
        {
          "name": "operator",
          "type": "address",
          "indexed": true,
          "internalType": "address"
        },
        {
          "name": "approved",
          "type": "bool",
          "indexed": false,
          "internalType": "bool"
        }
      ],
      "anonymous": false
    },
    {
      "type": "event",
      "name": "PermitUsed",
      "inputs": [
        {
          "name": "owner",
          "type": "address",
          "indexed": true,
          "internalType": "address"
        },
        {
          "name": "spender",
          "type": "address",
          "indexed": true,
          "internalType": "address"
        },
        {
          "name": "tokenId",
          "type": "uint256",
          "indexed": false,
          "internalType": "uint256"
        }
      ],
      "anonymous": false
    },
    {
      "type": "event",
      "name": "Transfer",
      "inputs": [
        {
          "name": "from",
          "type": "address",
          "indexed": true,
          "internalType": "address"
        },
        {
          "name": "to",
          "type": "address",
          "indexed": true,
          "internalType": "address"
        },
        {
          "name": "tokenId",
          "type": "uint256",
          "indexed": true,
          "internalType": "uint256"
        }
      ],
      "anonymous": false
    },
    {
      "type": "event",
      "name": "safeMintEvent",
      "inputs": [
        {
          "name": "to",
          "type": "address",
          "indexed": false,
          "internalType": "address"
        },
        {
          "name": "tokenId",
          "type": "uint256",
          "indexed": false,
          "internalType": "uint256"
        }
      ],
      "anonymous": false
    },
    {
      "type": "error",
      "name": "ECDSAInvalidSignature",
      "inputs": []
    },
    {
      "type": "error",
      "name": "ECDSAInvalidSignatureLength",
      "inputs": [
        {
          "name": "length",
          "type": "uint256",
          "internalType": "uint256"
        }
      ]
    },
    {
      "type": "error",
      "name": "ECDSAInvalidSignatureS",
      "inputs": [
        {
          "name": "s",
          "type": "bytes32",
          "internalType": "bytes32"
        }
      ]
    },
    {
      "type": "error",
      "name": "ERC721EnumerableForbiddenBatchMint",
      "inputs": []
    },
    {
      "type": "error",
      "name": "ERC721IncorrectOwner",
      "inputs": [
        {
          "name": "sender",
          "type": "address",
          "internalType": "address"
        },
        {
          "name": "tokenId",
          "type": "uint256",
          "internalType": "uint256"
        },
        {
          "name": "owner",
          "type": "address",
          "internalType": "address"
        }
      ]
    },
    {
      "type": "error",
      "name": "ERC721InsufficientApproval",
      "inputs": [
        {
          "name": "operator",
          "type": "address",
          "internalType": "address"
        },
        {
          "name": "tokenId",
          "type": "uint256",
          "internalType": "uint256"
        }
      ]
    },
    {
      "type": "error",
      "name": "ERC721InvalidApprover",
      "inputs": [
        {
          "name": "approver",
          "type": "address",
          "internalType": "address"
        }
      ]
    },
    {
      "type": "error",
      "name": "ERC721InvalidOperator",
      "inputs": [
        {
          "name": "operator",
          "type": "address",
          "internalType": "address"
        }
      ]
    },
    {
      "type": "error",
      "name": "ERC721InvalidOwner",
      "inputs": [
        {
          "name": "owner",
          "type": "address",
          "internalType": "address"
        }
      ]
    },
    {
      "type": "error",
      "name": "ERC721InvalidReceiver",
      "inputs": [
        {
          "name": "receiver",
          "type": "address",
          "internalType": "address"
        }
      ]
    },
    {
      "type": "error",
      "name": "ERC721InvalidSender",
      "inputs": [
        {
          "name": "sender",
          "type": "address",
          "internalType": "address"
        }
      ]
    },
    {
      "type": "error",
      "name": "ERC721NonexistentToken",
      "inputs": [
        {
          "name": "tokenId",
          "type": "uint256",
          "internalType": "uint256"
        }
      ]
    },
    {
      "type": "error",
      "name": "ERC721OutOfBoundsIndex",
      "inputs": [
        {
          "name": "owner",
          "type": "address",
          "internalType": "address"
        },
        {
          "name": "index",
          "type": "uint256",
          "internalType": "uint256"
        }
      ]
    },
    {
      "type": "error",
      "name": "InvalidShortString",
      "inputs": []
    },
    {
      "type": "error",
      "name": "InvalidSigner",
      "inputs": []
    },
    {
      "type": "error",
      "name": "NonExistentTokenURI",
      "inputs": []
    },
    {
      "type": "error",
      "name": "OwnableInvalidOwner",
      "inputs": [
        {
          "name": "owner",
          "type": "address",
          "internalType": "address"
        }
      ]
    },
    {
      "type": "error",
      "name": "OwnableUnauthorizedAccount",
      "inputs": [
        {
          "name": "account",
          "type": "address",
          "internalType": "address"
        }
      ]
    },
    {
      "type": "error",
      "name": "SignatureExpired",
      "inputs": []
    },
    {
      "type": "error",
      "name": "StringTooLong",
      "inputs": [
        {
          "name": "str",
          "type": "string",
          "internalType": "string"
        }
      ]
    }
  ],
  "bytecode": {
    "object": "0x61016060405234801562000011575f80fd5b506040516200282838038062002828833981016040819052620000349162000309565b6040805180820190915260018152603160f81b602082015284908282865f6200005e838262000441565b5060016200006d828262000441565b5050506001600160a01b0381166200009f57604051631e4fbdf760e01b81525f60048201526024015b60405180910390fd5b620000aa8162000178565b50620000b882600b620001c9565b61012052620000c981600c620001c9565b61014052815160208084019190912060e052815190820120610100524660a0526200015660e05161010051604080517f8b73c3c69bb8fe3d512ecc4cf759cc79239f7b179b0ffacaa9a75d522b39400f60208201529081019290925260608201524660808201523060a08201525f9060c00160405160208183030381529060405280519060200120905090565b60805250503060c052600d6200016d838262000441565b505050505062000561565b600a80546001600160a01b038381166001600160a01b0319831681179093556040519116919082907f8be0079c531659141344cd1fd0a4f28419497f9722a3daafe3b4186f6b6457e0905f90a35050565b5f602083511015620001e857620001e08362000201565b9050620001fb565b81620001f5848262000441565b5060ff90505b92915050565b5f80829050601f815111156200022e578260405163305a27a960e01b815260040162000096919062000509565b80516200023b826200053d565b179392505050565b634e487b7160e01b5f52604160045260245ffd5b5f5b838110156200027357818101518382015260200162000259565b50505f910152565b5f82601f8301126200028b575f80fd5b81516001600160401b0380821115620002a857620002a862000243565b604051601f8301601f19908116603f01168101908282118183101715620002d357620002d362000243565b81604052838152866020858801011115620002ec575f80fd5b620002ff84602083016020890162000257565b9695505050505050565b5f805f80608085870312156200031d575f80fd5b84516001600160401b038082111562000334575f80fd5b62000342888389016200027b565b9550602087015191508082111562000358575f80fd5b62000366888389016200027b565b945060408701519150808211156200037c575f80fd5b506200038b878288016200027b565b606087015190935090506001600160a01b0381168114620003aa575f80fd5b939692955090935050565b600181811c90821680620003ca57607f821691505b602082108103620003e957634e487b7160e01b5f52602260045260245ffd5b50919050565b601f8211156200043c575f81815260208120601f850160051c81016020861015620004175750805b601f850160051c820191505b81811015620004385782815560010162000423565b5050505b505050565b81516001600160401b038111156200045d576200045d62000243565b62000475816200046e8454620003b5565b84620003ef565b602080601f831160018114620004ab575f8415620004935750858301515b5f19600386901b1c1916600185901b17855562000438565b5f85815260208120601f198616915b82811015620004db57888601518255948401946001909101908401620004ba565b5085821015620004f957878501515f19600388901b60f8161c191681555b5050505050600190811b01905550565b602081525f82518060208401526200052981604085016020870162000257565b601f01601f19169190910160400192915050565b80516020808301519190811015620003e9575f1960209190910360031b1b16919050565b60805160a05160c05160e051610100516101205161014051612275620005b35f395f610eee01525f610ec101525f610dec01525f610dc401525f610d1f01525f610d4901525f610d7301526122755ff3fe608060405234801561000f575f80fd5b50600436106101c6575f3560e01c806370a08231116100fe578063a14481941161009e578063d505accf1161006e578063d505accf146103cf578063e985e9c5146103e2578063f2fde38b146103f5578063f7dedf5e14610408575f80fd5b8063a144819414610383578063a22cb46514610396578063b88d4fde146103a9578063c87b56dd146103bc575f80fd5b806384b0196e116100d957806384b0196e1461033c5780638da5cb5b146103575780639032c7261461036857806395d89b411461037b575f80fd5b806370a08231146102f9578063715018a61461030c5780637ecebe0014610314575f80fd5b80633644e515116101695780634f6ccce7116101445780634f6ccce7146102ad57806355f804b3146102c0578063605629d6146102d35780636352211e146102e6575f80fd5b80633644e5151461027f57806342842e0e1461028757806342966c681461029a575f80fd5b8063095ea7b3116101a4578063095ea7b31461023257806318160ddd1461024757806323b872dd146102595780632f745c591461026c575f80fd5b806301ffc9a7146101ca57806306fdde03146101f2578063081812fc14610207575b5f80fd5b6101dd6101d8366004611b20565b61041b565b60405190151581526020015b60405180910390f35b6101fa61042b565b6040516101e99190611b8f565b61021a610215366004611ba1565b6104ba565b6040516001600160a01b0390911681526020016101e9565b610245610240366004611bd3565b6104e1565b005b6008545b6040519081526020016101e9565b610245610267366004611bfb565b6104f0565b61024b61027a366004611bd3565b61057e565b61024b6105e1565b610245610295366004611bfb565b6105ef565b6102456102a8366004611ba1565b61060e565b61024b6102bb366004611ba1565b610619565b6102456102ce366004611c34565b61066e565b6102456102e1366004611cb0565b610683565b61021a6102f4366004611ba1565b610749565b61024b610307366004611d15565b610753565b610245610798565b61024b610322366004611d15565b6001600160a01b03165f908152600e602052604090205490565b6103446107ab565b6040516101e99796959493929190611d2e565b600a546001600160a01b031661021a565b610245610376366004611dd1565b6107ed565b6101fa61096a565b610245610391366004611bd3565b610979565b6102456103a4366004611e21565b61098b565b6102456103b7366004611e66565b610996565b6101fa6103ca366004611ba1565b6109ad565b6102456103dd366004611cb0565b610a3a565b6101dd6103f0366004611f3b565b610bb3565b610245610403366004611d15565b610be0565b610245610416366004611f63565b610c1d565b5f61042582610c96565b92915050565b60605f805461043990611fb7565b80601f016020809104026020016040519081016040528092919081815260200182805461046590611fb7565b80156104b05780601f10610487576101008083540402835291602001916104b0565b820191905f5260205f20905b81548152906001019060200180831161049357829003601f168201915b5050505050905090565b5f6104c482610cba565b505f828152600460205260409020546001600160a01b0316610425565b6104ec828233610cf2565b5050565b6001600160a01b03821661051e57604051633250574960e11b81525f60048201526024015b60405180910390fd5b5f61052a838333610cff565b9050836001600160a01b0316816001600160a01b031614610578576040516364283d7b60e01b81526001600160a01b0380861660048301526024820184905282166044820152606401610515565b50505050565b5f61058883610753565b82106105b95760405163295f44f760e21b81526001600160a01b038416600482015260248101839052604401610515565b506001600160a01b03919091165f908152600660209081526040808320938352929052205490565b5f6105ea610d13565b905090565b61060983838360405180602001604052805f815250610996565b505050565b6104ec5f8233610cff565b5f61062360085490565b821061064b5760405163295f44f760e21b81525f600482015260248101839052604401610515565b6008828154811061065e5761065e611fef565b905f5260205f2001549050919050565b610676610e3c565b600d610609828483612048565b6001600160a01b0386166106cd5760405162461bcd60e51b8152602060048201526011602482015270125b9d985b1a59081c9958da5c1a595b9d607a1b6044820152606401610515565b866001600160a01b03166106e086610749565b6001600160a01b0316146107265760405162461bcd60e51b815260206004820152600d60248201526c24b73b30b634b21037bbb732b960991b6044820152606401610515565b61073587338787878787610a3a565b6107408787876105ef565b50505050505050565b5f61042582610cba565b5f6001600160a01b03821661077d576040516322718ad960e21b81525f6004820152602401610515565b506001600160a01b03165f9081526003602052604090205490565b6107a0610e3c565b6107a95f610e69565b565b5f6060805f805f60606107bc610eba565b6107c4610ee7565b604080515f80825260208201909252600f60f81b9b939a50919850469750309650945092509050565b8342111561080e57604051630819bdcd60e01b815260040160405180910390fd5b6001600160a01b038781165f818152600e602090815260408083205481517f47ab88482c90e4bb94b82a947ae78fa91fb25de1469ab491f4c15b9a0a2677ee8185015280830195909552948b166060850152891515608085015260a0840185905260c08085018a90528151808603909101815260e0909401905282519201919091209061089a82610f14565b90505f6108a982888888610f40565b90508a6001600160a01b0316816001600160a01b0316146108dd57604051632057875960e21b815260040160405180910390fd5b6108e88b8b8b610f6c565b896001600160a01b03168b6001600160a01b03167f03e33ac53cf9c69eb8f73754e40036934f96370bf598adba9d82231ddb9b04778b60405161092f911515815260200190565b60405180910390a3610942846001612117565b6001600160a01b03909b165f908152600e602052604090209a909a5550505050505050505050565b60606001805461043990611fb7565b610981610e3c565b6104ec828261100a565b6104ec338383610f6c565b6109a18484846104f0565b61057884848484611023565b60605f6109b983610749565b6001600160a01b0316036109e05760405163d872946b60e01b815260040160405180910390fd5b5f600d80546109ee90611fb7565b905011610a095760405180602001604052805f815250610425565b600d610a1483611149565b604051602001610a2592919061212a565b60405160208183030381529060405292915050565b83421115610a5b57604051630819bdcd60e01b815260040160405180910390fd5b6001600160a01b038781165f818152600e602090815260408083205481517f48d39b37a35214940203bbbd4f383519797769b13d936f387d89430afef276888185015280830195909552948b166060850152608084018a905260a0840185905260c08085018a90528151808603909101815260e09094019052825192019190912090610ae682610f14565b90505f610af582888888610f40565b90508a6001600160a01b0316816001600160a01b031614610b2957604051632057875960e21b815260040160405180910390fd5b8a6001600160a01b0316610b3c8a610749565b6001600160a01b031614610b6357604051632057875960e21b815260040160405180910390fd5b610b6e8a8a8d610cf2565b896001600160a01b03168b6001600160a01b03167f1de9b1f4277253dc9ecd0dcf53c796ecb43ff6fa66d9f49e0ac00c8ed2dd43268b60405161092f91815260200190565b6001600160a01b039182165f90815260056020908152604080832093909416825291909152205460ff1690565b610be8610e3c565b6001600160a01b038116610c1157604051631e4fbdf760e01b81525f6004820152602401610515565b610c1a81610e69565b50565b856001600160a01b0316610c3086610749565b6001600160a01b031614610c765760405162461bcd60e51b815260206004820152600d60248201526c24b73b30b634b21037bbb732b960991b6044820152606401610515565b610c8586338787878787610a3a565b610c8e8561060e565b505050505050565b5f6001600160e01b0319821663780e9d6360e01b14806104255750610425826111d9565b5f818152600260205260408120546001600160a01b03168061042557604051637e27328960e01b815260048101849052602401610515565b6106098383836001611228565b5f610d0b84848461132c565b949350505050565b5f306001600160a01b037f000000000000000000000000000000000000000000000000000000000000000016148015610d6b57507f000000000000000000000000000000000000000000000000000000000000000046145b15610d9557507f000000000000000000000000000000000000000000000000000000000000000090565b6105ea604080517f8b73c3c69bb8fe3d512ecc4cf759cc79239f7b179b0ffacaa9a75d522b39400f60208201527f0000000000000000000000000000000000000000000000000000000000000000918101919091527f000000000000000000000000000000000000000000000000000000000000000060608201524660808201523060a08201525f9060c00160405160208183030381529060405280519060200120905090565b600a546001600160a01b031633146107a95760405163118cdaa760e01b8152336004820152602401610515565b600a80546001600160a01b038381166001600160a01b0319831681179093556040519116919082907f8be0079c531659141344cd1fd0a4f28419497f9722a3daafe3b4186f6b6457e0905f90a35050565b60606105ea7f0000000000000000000000000000000000000000000000000000000000000000600b6113f7565b60606105ea7f0000000000000000000000000000000000000000000000000000000000000000600c6113f7565b5f610425610f20610d13565b8360405161190160f01b8152600281019290925260228201526042902090565b5f805f80610f50888888886114a0565b925092509250610f608282611568565b50909695505050505050565b6001600160a01b038216610f9e57604051630b61174360e31b81526001600160a01b0383166004820152602401610515565b6001600160a01b038381165f81815260056020908152604080832094871680845294825291829020805460ff191686151590811790915591519182527f17307eab39ab6107e8899845ad3d59bd9653f200f220920489ca2b5937696c31910160405180910390a3505050565b6104ec828260405180602001604052805f815250611620565b6001600160a01b0383163b1561057857604051630a85bd0160e11b81526001600160a01b0384169063150b7a02906110659033908890879087906004016121ad565b6020604051808303815f875af192505050801561109f575060408051601f3d908101601f1916820190925261109c918101906121e9565b60015b611106573d8080156110cc576040519150601f19603f3d011682016040523d82523d5f602084013e6110d1565b606091505b5080515f036110fe57604051633250574960e11b81526001600160a01b0385166004820152602401610515565b805181602001fd5b6001600160e01b03198116630a85bd0160e11b1461114257604051633250574960e11b81526001600160a01b0385166004820152602401610515565b5050505050565b60605f61115583611636565b60010190505f8167ffffffffffffffff81111561117457611174611e52565b6040519080825280601f01601f19166020018201604052801561119e576020820181803683370190505b5090508181016020015b5f19016f181899199a1a9b1b9c1cb0b131b232b360811b600a86061a8153600a85049450846111a857509392505050565b5f6001600160e01b031982166380ac58cd60e01b148061120957506001600160e01b03198216635b5e139f60e01b145b8061042557506301ffc9a760e01b6001600160e01b0319831614610425565b808061123c57506001600160a01b03821615155b156112fd575f61124b84610cba565b90506001600160a01b038316158015906112775750826001600160a01b0316816001600160a01b031614155b801561128a57506112888184610bb3565b155b156112b35760405163a9fbf51f60e01b81526001600160a01b0384166004820152602401610515565b81156112fb5783856001600160a01b0316826001600160a01b03167f8c5be1e5ebec7d5bd14f71427d1e84f3dd0314c0f7b2291e5b200ac8c7c3b92560405160405180910390a45b505b50505f90815260046020526040902080546001600160a01b0319166001600160a01b0392909216919091179055565b5f8061133985858561170d565b90506001600160a01b0381166113955761139084600880545f838152600960205260408120829055600182018355919091527ff3f7a9fe364faab93b216da50a3214154f22a0a2b415b23a84c8169e8b636ee30155565b6113b8565b846001600160a01b0316816001600160a01b0316146113b8576113b881856117ff565b6001600160a01b0385166113d4576113cf8461188c565b610d0b565b846001600160a01b0316816001600160a01b031614610d0b57610d0b8585611933565b606060ff83146114115761140a83611981565b9050610425565b81805461141d90611fb7565b80601f016020809104026020016040519081016040528092919081815260200182805461144990611fb7565b80156114945780601f1061146b57610100808354040283529160200191611494565b820191905f5260205f20905b81548152906001019060200180831161147757829003601f168201915b50505050509050610425565b5f80807f7fffffffffffffffffffffffffffffff5d576e7357a4501ddfe92f46681b20a08411156114d957505f9150600390508261155e565b604080515f808252602082018084528a905260ff891692820192909252606081018790526080810186905260019060a0016020604051602081039080840390855afa15801561152a573d5f803e3d5ffd5b5050604051601f1901519150506001600160a01b03811661155557505f92506001915082905061155e565b92505f91508190505b9450945094915050565b5f82600381111561157b5761157b612204565b03611584575050565b600182600381111561159857611598612204565b036115b65760405163f645eedf60e01b815260040160405180910390fd5b60028260038111156115ca576115ca612204565b036115eb5760405163fce698f760e01b815260048101829052602401610515565b60038260038111156115ff576115ff612204565b036104ec576040516335e2f38360e21b815260048101829052602401610515565b61162a83836119be565b6106095f848484611023565b5f8072184f03e93ff9f4daa797ed6e38ed64bf6a1f0160401b83106116745772184f03e93ff9f4daa797ed6e38ed64bf6a1f0160401b830492506040015b6d04ee2d6d415b85acef810000000083106116a0576d04ee2d6d415b85acef8100000000830492506020015b662386f26fc1000083106116be57662386f26fc10000830492506010015b6305f5e10083106116d6576305f5e100830492506008015b61271083106116ea57612710830492506004015b606483106116fc576064830492506002015b600a83106104255760010192915050565b5f828152600260205260408120546001600160a01b039081169083161561173957611739818486611a1f565b6001600160a01b03811615611773576117545f855f80611228565b6001600160a01b0381165f90815260036020526040902080545f190190555b6001600160a01b038516156117a1576001600160a01b0385165f908152600360205260409020805460010190555b5f8481526002602052604080822080546001600160a01b0319166001600160a01b0389811691821790925591518793918516917fddf252ad1be2c89b69c2b068fc378daa952ba7f163c4a11628f55a4df523b3ef91a4949350505050565b5f61180983610753565b5f8381526007602052604090205490915080821461185a576001600160a01b0384165f9081526006602090815260408083208584528252808320548484528184208190558352600790915290208190555b505f9182526007602090815260408084208490556001600160a01b039094168352600681528383209183525290812055565b6008545f9061189d90600190612218565b5f83815260096020526040812054600880549394509092849081106118c4576118c4611fef565b905f5260205f200154905080600883815481106118e3576118e3611fef565b5f91825260208083209091019290925582815260099091526040808220849055858252812055600880548061191a5761191a61222b565b600190038181905f5260205f20015f9055905550505050565b5f600161193f84610753565b6119499190612218565b6001600160a01b039093165f908152600660209081526040808320868452825280832085905593825260079052919091209190915550565b60605f61198d83611a83565b6040805160208082528183019092529192505f91906020820181803683375050509182525060208101929092525090565b6001600160a01b0382166119e757604051633250574960e11b81525f6004820152602401610515565b5f6119f383835f610cff565b90506001600160a01b03811615610609576040516339e3563760e11b81525f6004820152602401610515565b611a2a838383611aaa565b610609576001600160a01b038316611a5857604051637e27328960e01b815260048101829052602401610515565b60405163177e802f60e01b81526001600160a01b038316600482015260248101829052604401610515565b5f60ff8216601f81111561042557604051632cd44ac360e21b815260040160405180910390fd5b5f6001600160a01b03831615801590610d0b5750826001600160a01b0316846001600160a01b03161480611ae35750611ae38484610bb3565b80610d0b5750505f908152600460205260409020546001600160a01b03908116911614919050565b6001600160e01b031981168114610c1a575f80fd5b5f60208284031215611b30575f80fd5b8135611b3b81611b0b565b9392505050565b5f5b83811015611b5c578181015183820152602001611b44565b50505f910152565b5f8151808452611b7b816020860160208601611b42565b601f01601f19169290920160200192915050565b602081525f611b3b6020830184611b64565b5f60208284031215611bb1575f80fd5b5035919050565b80356001600160a01b0381168114611bce575f80fd5b919050565b5f8060408385031215611be4575f80fd5b611bed83611bb8565b946020939093013593505050565b5f805f60608486031215611c0d575f80fd5b611c1684611bb8565b9250611c2460208501611bb8565b9150604084013590509250925092565b5f8060208385031215611c45575f80fd5b823567ffffffffffffffff80821115611c5c575f80fd5b818501915085601f830112611c6f575f80fd5b813581811115611c7d575f80fd5b866020828501011115611c8e575f80fd5b60209290920196919550909350505050565b803560ff81168114611bce575f80fd5b5f805f805f805f60e0888a031215611cc6575f80fd5b611ccf88611bb8565b9650611cdd60208901611bb8565b95506040880135945060608801359350611cf960808901611ca0565b925060a0880135915060c0880135905092959891949750929550565b5f60208284031215611d25575f80fd5b611b3b82611bb8565b60ff60f81b881681525f602060e081840152611d4d60e084018a611b64565b8381036040850152611d5f818a611b64565b606085018990526001600160a01b038816608086015260a0850187905284810360c086015285518082528387019250908301905f5b81811015611db057835183529284019291840191600101611d94565b50909c9b505050505050505050505050565b80358015158114611bce575f80fd5b5f805f805f805f60e0888a031215611de7575f80fd5b611df088611bb8565b9650611dfe60208901611bb8565b9550611e0c60408901611dc2565b945060608801359350611cf960808901611ca0565b5f8060408385031215611e32575f80fd5b611e3b83611bb8565b9150611e4960208401611dc2565b90509250929050565b634e487b7160e01b5f52604160045260245ffd5b5f805f8060808587031215611e79575f80fd5b611e8285611bb8565b9350611e9060208601611bb8565b925060408501359150606085013567ffffffffffffffff80821115611eb3575f80fd5b818701915087601f830112611ec6575f80fd5b813581811115611ed857611ed8611e52565b604051601f8201601f19908116603f01168101908382118183101715611f0057611f00611e52565b816040528281528a6020848701011115611f18575f80fd5b826020860160208301375f60208483010152809550505050505092959194509250565b5f8060408385031215611f4c575f80fd5b611f5583611bb8565b9150611e4960208401611bb8565b5f805f805f8060c08789031215611f78575f80fd5b611f8187611bb8565b95506020870135945060408701359350611f9d60608801611ca0565b92506080870135915060a087013590509295509295509295565b600181811c90821680611fcb57607f821691505b602082108103611fe957634e487b7160e01b5f52602260045260245ffd5b50919050565b634e487b7160e01b5f52603260045260245ffd5b601f821115610609575f81815260208120601f850160051c810160208610156120295750805b601f850160051c820191505b81811015610c8e57828155600101612035565b67ffffffffffffffff83111561206057612060611e52565b6120748361206e8354611fb7565b83612003565b5f601f8411600181146120a5575f851561208e5750838201355b5f19600387901b1c1916600186901b178355611142565b5f83815260209020601f19861690835b828110156120d557868501358255602094850194600190920191016120b5565b50868210156120f1575f1960f88860031b161c19848701351681555b505060018560011b0183555050505050565b634e487b7160e01b5f52601160045260245ffd5b8082018082111561042557610425612103565b5f80845461213781611fb7565b6001828116801561214f576001811461216457612190565b60ff1984168752821515830287019450612190565b885f526020805f205f5b858110156121875781548a82015290840190820161216e565b50505082870194505b5050505083516121a4818360208801611b42565b01949350505050565b6001600160a01b03858116825284166020820152604081018390526080606082018190525f906121df90830184611b64565b9695505050505050565b5f602082840312156121f9575f80fd5b8151611b3b81611b0b565b634e487b7160e01b5f52602160045260245ffd5b8181038181111561042557610425612103565b634e487b7160e01b5f52603160045260245ffdfea26469706673582212205855e09520c0a0cae90217249db3a5b826f677f73d0c477057594b9cf32be7de64736f6c63430008140033",
    "linkReferences": {}
  },
  "methodIdentifiers": {
    "DOMAIN_SEPARATOR()": "3644e515",
    "approve(address,uint256)": "095ea7b3",
    "balanceOf(address)": "70a08231",
    "burn(uint256)": "42966c68",
    "burnWithPermit(address,uint256,uint256,uint8,bytes32,bytes32)": "f7dedf5e",
    "eip712Domain()": "84b0196e",
    "getApproved(uint256)": "081812fc",
    "isApprovedForAll(address,address)": "e985e9c5",
    "name()": "06fdde03",
    "nonces(address)": "7ecebe00",
    "owner()": "8da5cb5b",
    "ownerOf(uint256)": "6352211e",
    "permit(address,address,uint256,uint256,uint8,bytes32,bytes32)": "d505accf",
    "permitForAll(address,address,bool,uint256,uint8,bytes32,bytes32)": "9032c726",
    "renounceOwnership()": "715018a6",
    "safeMint(address,uint256)": "a1448194",
    "safeTransferFrom(address,address,uint256)": "42842e0e",
    "safeTransferFrom(address,address,uint256,bytes)": "b88d4fde",
    "setApprovalForAll(address,bool)": "a22cb465",
    "setBaseURI(string)": "55f804b3",
    "supportsInterface(bytes4)": "01ffc9a7",
    "symbol()": "95d89b41",
    "tokenByIndex(uint256)": "4f6ccce7",
    "tokenOfOwnerByIndex(address,uint256)": "2f745c59",
    "tokenURI(uint256)": "c87b56dd",
    "totalSupply()": "18160ddd",
    "transferFrom(address,address,uint256)": "23b872dd",
    "transferOwnership(address)": "f2fde38b",
    "transferWithPermit(address,address,uint256,uint256,uint8,bytes32,bytes32)": "605629d6"
  },
  "id": 40
}