{
  "abi": [
    {
      "type": "constructor",
      "inputs": [
        {
          "name": "name",
          "type": "string",
          "internalType": "string"
        },
        {
          "name": "symbol",
          "type": "string",
          "internalType": "string"
        },
        {
          "name": "baseURI",
          "type": "string",
          "internalType": "string"
        },
        {
          "name": "initialOwner",
          "type": "address",
          "internalType": "address"
        }
      ],
      "stateMutability": "nonpayable"
    },
    {
      "type": "function",
      "name": "DOMAIN_SEPARATOR",
      "inputs": [],
      "outputs": [
        {
          "name": "",
          "type": "bytes32",
          "internalType": "bytes32"
        }
      ],
      "stateMutability": "view"
    },
    {
      "type": "function",
      "name": "approve",
      "inputs": [
        {
          "name": "to",
          "type": "address",
          "internalType": "address"
        },
        {
          "name": "tokenId",
          "type": "uint256",
          "internalType": "uint256"
        }
      ],
      "outputs": [],
      "stateMutability": "nonpayable"
    },
    {
      "type": "function",
      "name": "balanceOf",
      "inputs": [
        {
          "name": "owner",
          "type": "address",
          "internalType": "address"
        }
      ],
      "outputs": [
        {
          "name": "",
          "type": "uint256",
          "internalType": "uint256"
        }
      ],
      "stateMutability": "view"
    },
    {
      "type": "function",
      "name": "burn",
      "inputs": [
        {
          "name": "tokenId",
          "type": "uint256",
          "internalType": "uint256"
        }
      ],
      "outputs": [],
      "stateMutability": "nonpayable"
    },
    {
      "type": "function",
      "name": "burnWithPermit",
      "inputs": [
        {
          "name": "from",
          "type": "address",
          "internalType": "address"
        },
        {
          "name": "tokenId",
          "type": "uint256",
          "internalType": "uint256"
        },
        {
          "name": "deadline",
          "type": "uint256",
          "internalType": "uint256"
        },
        {
          "name": "v",
          "type": "uint8",
          "internalType": "uint8"
        },
        {
          "name": "r",
          "type": "bytes32",
          "internalType": "bytes32"
        },
        {
          "name": "s",
          "type": "bytes32",
          "internalType": "bytes32"
        }
      ],
      "outputs": [],
      "stateMutability": "nonpayable"
    },
    {
      "type": "function",
      "name": "eip712Domain",
      "inputs": [],
      "outputs": [
        {
          "name": "fields",
          "type": "bytes1",
          "internalType": "bytes1"
        },
        {
          "name": "name",
          "type": "string",
          "internalType": "string"
        },
        {
          "name": "version",
          "type": "string",
          "internalType": "string"
        },
        {
          "name": "chainId",
          "type": "uint256",
          "internalType": "uint256"
        },
        {
          "name": "verifyingContract",
          "type": "address",
          "internalType": "address"
        },
        {
          "name": "salt",
          "type": "bytes32",
          "internalType": "bytes32"
        },
        {
          "name": "extensions",
          "type": "uint256[]",
          "internalType": "uint256[]"
        }
      ],
      "stateMutability": "view"
    },
    {
      "type": "function",
      "name": "getApproved",
      "inputs": [
        {
          "name": "tokenId",
          "type": "uint256",
          "internalType": "uint256"
        }
      ],
      "outputs": [
        {
          "name": "",
          "type": "address",
          "internalType": "address"
        }
      ],
      "stateMutability": "view"
    },
    {
      "type": "function",
      "name": "isApprovedForAll",
      "inputs": [
        {
          "name": "owner",
          "type": "address",
          "internalType": "address"
        },
        {
          "name": "operator",
          "type": "address",
          "internalType": "address"
        }
      ],
      "outputs": [
        {
          "name": "",
          "type": "bool",
          "internalType": "bool"
        }
      ],
      "stateMutability": "view"
    },
    {
      "type": "function",
      "name": "name",
      "inputs": [],
      "outputs": [
        {
          "name": "",
          "type": "string",
          "internalType": "string"
        }
      ],
      "stateMutability": "view"
    },
    {
      "type": "function",
      "name": "nextTokenId",
      "inputs": [],
      "outputs": [
        {
          "name": "",
          "type": "uint256",
          "internalType": "uint256"
        }
      ],
      "stateMutability": "view"
    },
    {
      "type": "function",
      "name": "nonces",
      "inputs": [
        {
          "name": "owner",
          "type": "address",
          "internalType": "address"
        }
      ],
      "outputs": [
        {
          "name": "",
          "type": "uint256",
          "internalType": "uint256"
        }
      ],
      "stateMutability": "view"
    },
    {
      "type": "function",
      "name": "owner",
      "inputs": [],
      "outputs": [
        {
          "name": "",
          "type": "address",
          "internalType": "address"
        }
      ],
      "stateMutability": "view"
    },
    {
      "type": "function",
      "name": "ownerOf",
      "inputs": [
        {
          "name": "tokenId",
          "type": "uint256",
          "internalType": "uint256"
        }
      ],
      "outputs": [
        {
          "name": "",
          "type": "address",
          "internalType": "address"
        }
      ],
      "stateMutability": "view"
    },
    {
      "type": "function",
      "name": "permit",
      "inputs": [
        {
          "name": "owner",
          "type": "address",
          "internalType": "address"
        },
        {
          "name": "spender",
          "type": "address",
          "internalType": "address"
        },
        {
          "name": "tokenId",
          "type": "uint256",
          "internalType": "uint256"
        },
        {
          "name": "deadline",
          "type": "uint256",
          "internalType": "uint256"
        },
        {
          "name": "v",
          "type": "uint8",
          "internalType": "uint8"
        },
        {
          "name": "r",
          "type": "bytes32",
          "internalType": "bytes32"
        },
        {
          "name": "s",
          "type": "bytes32",
          "internalType": "bytes32"
        }
      ],
      "outputs": [],
      "stateMutability": "nonpayable"
    },
    {
      "type": "function",
      "name": "permitForAll",
      "inputs": [
        {
          "name": "owner",
          "type": "address",
          "internalType": "address"
        },
        {
          "name": "operator",
          "type": "address",
          "internalType": "address"
        },
        {
          "name": "approved",
          "type": "bool",
          "internalType": "bool"
        },
        {
          "name": "deadline",
          "type": "uint256",
          "internalType": "uint256"
        },
        {
          "name": "v",
          "type": "uint8",
          "internalType": "uint8"
        },
        {
          "name": "r",
          "type": "bytes32",
          "internalType": "bytes32"
        },
        {
          "name": "s",
          "type": "bytes32",
          "internalType": "bytes32"
        }
      ],
      "outputs": [],
      "stateMutability": "nonpayable"
    },
    {
      "type": "function",
      "name": "renounceOwnership",
      "inputs": [],
      "outputs": [],
      "stateMutability": "nonpayable"
    },
    {
      "type": "function",
      "name": "safeMint",
      "inputs": [
        {
          "name": "to",
          "type": "address",
          "internalType": "address"
        }
      ],
      "outputs": [
        {
          "name": "",
          "type": "uint256",
          "internalType": "uint256"
        }
      ],
      "stateMutability": "nonpayable"
    },
    {
      "type": "function",
      "name": "safeTransferFrom",
      "inputs": [
        {
          "name": "from",
          "type": "address",
          "internalType": "address"
        },
        {
          "name": "to",
          "type": "address",
          "internalType": "address"
        },
        {
          "name": "tokenId",
          "type": "uint256",
          "internalType": "uint256"
        }
      ],
      "outputs": [],
      "stateMutability": "nonpayable"
    },
    {
      "type": "function",
      "name": "safeTransferFrom",
      "inputs": [
        {
          "name": "from",
          "type": "address",
          "internalType": "address"
        },
        {
          "name": "to",
          "type": "address",
          "internalType": "address"
        },
        {
          "name": "tokenId",
          "type": "uint256",
          "internalType": "uint256"
        },
        {
          "name": "data",
          "type": "bytes",
          "internalType": "bytes"
        }
      ],
      "outputs": [],
      "stateMutability": "nonpayable"
    },
    {
      "type": "function",
      "name": "setApprovalForAll",
      "inputs": [
        {
          "name": "operator",
          "type": "address",
          "internalType": "address"
        },
        {
          "name": "approved",
          "type": "bool",
          "internalType": "bool"
        }
      ],
      "outputs": [],
      "stateMutability": "nonpayable"
    },
    {
      "type": "function",
      "name": "setBaseURI",
      "inputs": [
        {
          "name": "baseURI",
          "type": "string",
          "internalType": "string"
        }
      ],
      "outputs": [],
      "stateMutability": "nonpayable"
    },
    {
      "type": "function",
      "name": "supportsInterface",
      "inputs": [
        {
          "name": "interfaceId",
          "type": "bytes4",
          "internalType": "bytes4"
        }
      ],
      "outputs": [
        {
          "name": "",
          "type": "bool",
          "internalType": "bool"
        }
      ],
      "stateMutability": "view"
    },
    {
      "type": "function",
      "name": "symbol",
      "inputs": [],
      "outputs": [
        {
          "name": "",
          "type": "string",
          "internalType": "string"
        }
      ],
      "stateMutability": "view"
    },
    {
      "type": "function",
      "name": "tokenByIndex",
      "inputs": [
        {
          "name": "index",
          "type": "uint256",
          "internalType": "uint256"
        }
      ],
      "outputs": [
        {
          "name": "",
          "type": "uint256",
          "internalType": "uint256"
        }
      ],
      "stateMutability": "view"
    },
    {
      "type": "function",
      "name": "tokenOfOwnerByIndex",
      "inputs": [
        {
          "name": "owner",
          "type": "address",
          "internalType": "address"
        },
        {
          "name": "index",
          "type": "uint256",
          "internalType": "uint256"
        }
      ],
      "outputs": [
        {
          "name": "",
          "type": "uint256",
          "internalType": "uint256"
        }
      ],
      "stateMutability": "view"
    },
    {
      "type": "function",
      "name": "tokenURI",
      "inputs": [
        {
          "name": "tokenId",
          "type": "uint256",
          "internalType": "uint256"
        }
      ],
      "outputs": [
        {
          "name": "",
          "type": "string",
          "internalType": "string"
        }
      ],
      "stateMutability": "view"
    },
    {
      "type": "function",
      "name": "totalSupply",
      "inputs": [],
      "outputs": [
        {
          "name": "",
          "type": "uint256",
          "internalType": "uint256"
        }
      ],
      "stateMutability": "view"
    },
    {
      "type": "function",
      "name": "transferFrom",
      "inputs": [
        {
          "name": "from",
          "type": "address",
          "internalType": "address"
        },
        {
          "name": "to",
          "type": "address",
          "internalType": "address"
        },
        {
          "name": "tokenId",
          "type": "uint256",
          "internalType": "uint256"
        }
      ],
      "outputs": [],
      "stateMutability": "nonpayable"
    },
    {
      "type": "function",
      "name": "transferOwnership",
      "inputs": [
        {
          "name": "newOwner",
          "type": "address",
          "internalType": "address"
        }
      ],
      "outputs": [],
      "stateMutability": "nonpayable"
    },
    {
      "type": "function",
      "name": "transferWithPermit",
      "inputs": [
        {
          "name": "from",
          "type": "address",
          "internalType": "address"
        },
        {
          "name": "to",
          "type": "address",
          "internalType": "address"
        },
        {
          "name": "tokenId",
          "type": "uint256",
          "internalType": "uint256"
        },
        {
          "name": "deadline",
          "type": "uint256",
          "internalType": "uint256"
        },
        {
          "name": "v",
          "type": "uint8",
          "internalType": "uint8"
        },
        {
          "name": "r",
          "type": "bytes32",
          "internalType": "bytes32"
        },
        {
          "name": "s",
          "type": "bytes32",
          "internalType": "bytes32"
        }
      ],
      "outputs": [],
      "stateMutability": "nonpayable"
    },
    {
      "type": "event",
      "name": "Approval",
      "inputs": [
        {
          "name": "owner",
          "type": "address",
          "indexed": true,
          "internalType": "address"
        },
        {
          "name": "approved",
          "type": "address",
          "indexed": true,
          "internalType": "address"
        },
        {
          "name": "tokenId",
          "type": "uint256",
          "indexed": true,
          "internalType": "uint256"
        }
      ],
      "anonymous": false
    },
    {
      "type": "event",
      "name": "ApprovalForAll",
      "inputs": [
        {
          "name": "owner",
          "type": "address",
          "indexed": true,
          "internalType": "address"
        },
        {
          "name": "operator",
          "type": "address",
          "indexed": true,
          "internalType": "address"
        },
        {
          "name": "approved",
          "type": "bool",
          "indexed": false,
          "internalType": "bool"
        }
      ],
      "anonymous": false
    },
    {
      "type": "event",
      "name": "EIP712DomainChanged",
      "inputs": [],
      "anonymous": false
    },
    {
      "type": "event",
      "name": "OwnershipTransferred",
      "inputs": [
        {
          "name": "previousOwner",
          "type": "address",
          "indexed": true,
          "internalType": "address"
        },
        {
          "name": "newOwner",
          "type": "address",
          "indexed": true,
          "internalType": "address"
        }
      ],
      "anonymous": false
    },
    {
      "type": "event",
      "name": "PermitForAllUsed",
      "inputs": [
        {
          "name": "owner",
          "type": "address",
          "indexed": true,
          "internalType": "address"
        },
        {
          "name": "operator",
          "type": "address",
          "indexed": true,
          "internalType": "address"
        },
        {
          "name": "approved",
          "type": "bool",
          "indexed": false,
          "internalType": "bool"
        }
      ],
      "anonymous": false
    },
    {
      "type": "event",
      "name": "PermitUsed",
      "inputs": [
        {
          "name": "owner",
          "type": "address",
          "indexed": true,
          "internalType": "address"
        },
        {
          "name": "spender",
          "type": "address",
          "indexed": true,
          "internalType": "address"
        },
        {
          "name": "tokenId",
          "type": "uint256",
          "indexed": false,
          "internalType": "uint256"
        }
      ],
      "anonymous": false
    },
    {
      "type": "event",
      "name": "Transfer",
      "inputs": [
        {
          "name": "from",
          "type": "address",
          "indexed": true,
          "internalType": "address"
        },
        {
          "name": "to",
          "type": "address",
          "indexed": true,
          "internalType": "address"
        },
        {
          "name": "tokenId",
          "type": "uint256",
          "indexed": true,
          "internalType": "uint256"
        }
      ],
      "anonymous": false
    },
    {
      "type": "event",
      "name": "safeMintEvent",
      "inputs": [
        {
          "name": "to",
          "type": "address",
          "indexed": false,
          "internalType": "address"
        },
        {
          "name": "tokenId",
          "type": "uint256",
          "indexed": false,
          "internalType": "uint256"
        }
      ],
      "anonymous": false
    },
    {
      "type": "error",
      "name": "ECDSAInvalidSignature",
      "inputs": []
    },
    {
      "type": "error",
      "name": "ECDSAInvalidSignatureLength",
      "inputs": [
        {
          "name": "length",
          "type": "uint256",
          "internalType": "uint256"
        }
      ]
    },
    {
      "type": "error",
      "name": "ECDSAInvalidSignatureS",
      "inputs": [
        {
          "name": "s",
          "type": "bytes32",
          "internalType": "bytes32"
        }
      ]
    },
    {
      "type": "error",
      "name": "ERC721EnumerableForbiddenBatchMint",
      "inputs": []
    },
    {
      "type": "error",
      "name": "ERC721IncorrectOwner",
      "inputs": [
        {
          "name": "sender",
          "type": "address",
          "internalType": "address"
        },
        {
          "name": "tokenId",
          "type": "uint256",
          "internalType": "uint256"
        },
        {
          "name": "owner",
          "type": "address",
          "internalType": "address"
        }
      ]
    },
    {
      "type": "error",
      "name": "ERC721InsufficientApproval",
      "inputs": [
        {
          "name": "operator",
          "type": "address",
          "internalType": "address"
        },
        {
          "name": "tokenId",
          "type": "uint256",
          "internalType": "uint256"
        }
      ]
    },
    {
      "type": "error",
      "name": "ERC721InvalidApprover",
      "inputs": [
        {
          "name": "approver",
          "type": "address",
          "internalType": "address"
        }
      ]
    },
    {
      "type": "error",
      "name": "ERC721InvalidOperator",
      "inputs": [
        {
          "name": "operator",
          "type": "address",
          "internalType": "address"
        }
      ]
    },
    {
      "type": "error",
      "name": "ERC721InvalidOwner",
      "inputs": [
        {
          "name": "owner",
          "type": "address",
          "internalType": "address"
        }
      ]
    },
    {
      "type": "error",
      "name": "ERC721InvalidReceiver",
      "inputs": [
        {
          "name": "receiver",
          "type": "address",
          "internalType": "address"
        }
      ]
    },
    {
      "type": "error",
      "name": "ERC721InvalidSender",
      "inputs": [
        {
          "name": "sender",
          "type": "address",
          "internalType": "address"
        }
      ]
    },
    {
      "type": "error",
      "name": "ERC721NonexistentToken",
      "inputs": [
        {
          "name": "tokenId",
          "type": "uint256",
          "internalType": "uint256"
        }
      ]
    },
    {
      "type": "error",
      "name": "ERC721OutOfBoundsIndex",
      "inputs": [
        {
          "name": "owner",
          "type": "address",
          "internalType": "address"
        },
        {
          "name": "index",
          "type": "uint256",
          "internalType": "uint256"
        }
      ]
    },
    {
      "type": "error",
      "name": "InvalidShortString",
      "inputs": []
    },
    {
      "type": "error",
      "name": "InvalidSigner",
      "inputs": []
    },
    {
      "type": "error",
      "name": "NonExistentTokenURI",
      "inputs": []
    },
    {
      "type": "error",
      "name": "OwnableInvalidOwner",
      "inputs": [
        {
          "name": "owner",
          "type": "address",
          "internalType": "address"
        }
      ]
    },
    {
      "type": "error",
      "name": "OwnableUnauthorizedAccount",
      "inputs": [
        {
          "name": "account",
          "type": "address",
          "internalType": "address"
        }
      ]
    },
    {
      "type": "error",
      "name": "SignatureExpired",
      "inputs": []
    },
    {
      "type": "error",
      "name": "StringTooLong",
      "inputs": [
        {
          "name": "str",
          "type": "string",
          "internalType": "string"
        }
      ]
    }
  ],
  "bytecode": {
    "object": "0x61016060405234801562000011575f80fd5b50604051620028733803806200287383398101604081905262000034916200030f565b6040805180820190915260018152603160f81b602082015284908282865f6200005e838262000447565b5060016200006d828262000447565b5050506001600160a01b0381166200009f57604051631e4fbdf760e01b81525f60048201526024015b60405180910390fd5b620000aa816200017e565b50620000b882600b620001cf565b61012052620000c981600c620001cf565b61014052815160208084019190912060e052815190820120610100524660a0526200015660e05161010051604080517f8b73c3c69bb8fe3d512ecc4cf759cc79239f7b179b0ffacaa9a75d522b39400f60208201529081019290925260608201524660808201523060a08201525f9060c00160405160208183030381529060405280519060200120905090565b60805250503060c052600d6200016d838262000447565b50506001600e555062000567915050565b600a80546001600160a01b038381166001600160a01b0319831681179093556040519116919082907f8be0079c531659141344cd1fd0a4f28419497f9722a3daafe3b4186f6b6457e0905f90a35050565b5f602083511015620001ee57620001e68362000207565b905062000201565b81620001fb848262000447565b5060ff90505b92915050565b5f80829050601f8151111562000234578260405163305a27a960e01b81526004016200009691906200050f565b8051620002418262000543565b179392505050565b634e487b7160e01b5f52604160045260245ffd5b5f5b83811015620002795781810151838201526020016200025f565b50505f910152565b5f82601f83011262000291575f80fd5b81516001600160401b0380821115620002ae57620002ae62000249565b604051601f8301601f19908116603f01168101908282118183101715620002d957620002d962000249565b81604052838152866020858801011115620002f2575f80fd5b620003058460208301602089016200025d565b9695505050505050565b5f805f806080858703121562000323575f80fd5b84516001600160401b03808211156200033a575f80fd5b620003488883890162000281565b955060208701519150808211156200035e575f80fd5b6200036c8883890162000281565b9450604087015191508082111562000382575f80fd5b50620003918782880162000281565b606087015190935090506001600160a01b0381168114620003b0575f80fd5b939692955090935050565b600181811c90821680620003d057607f821691505b602082108103620003ef57634e487b7160e01b5f52602260045260245ffd5b50919050565b601f82111562000442575f81815260208120601f850160051c810160208610156200041d5750805b601f850160051c820191505b818110156200043e5782815560010162000429565b5050505b505050565b81516001600160401b0381111562000463576200046362000249565b6200047b81620004748454620003bb565b84620003f5565b602080601f831160018114620004b1575f8415620004995750858301515b5f19600386901b1c1916600185901b1785556200043e565b5f85815260208120601f198616915b82811015620004e157888601518255948401946001909101908401620004c0565b5085821015620004ff57878501515f19600388901b60f8161c191681555b5050505050600190811b01905550565b602081525f82518060208401526200052f8160408501602087016200025d565b601f01601f19169190910160400192915050565b80516020808301519190811015620003ef575f1960209190910360031b1b16919050565b60805160a05160c05160e0516101005161012051610140516122ba620005b95f395f610f3901525f610f0c01525f610e1e01525f610df601525f610d5101525f610d7b01525f610da501526122ba5ff3fe608060405234801561000f575f80fd5b50600436106101d1575f3560e01c806370a08231116100fe57806395d89b411161009e578063d505accf1161006e578063d505accf146103e2578063e985e9c5146103f5578063f2fde38b14610408578063f7dedf5e1461041b575f80fd5b806395d89b41146103a1578063a22cb465146103a9578063b88d4fde146103bc578063c87b56dd146103cf575f80fd5b80637ecebe00116100d95780637ecebe001461033a57806384b0196e146103625780638da5cb5b1461037d5780639032c7261461038e575f80fd5b806370a0823114610317578063715018a61461032a57806375794a3c14610332575f80fd5b80633644e515116101745780634f6ccce7116101445780634f6ccce7146102cb57806355f804b3146102de578063605629d6146102f15780636352211e14610304575f80fd5b80633644e5151461028a57806340d097c31461029257806342842e0e146102a557806342966c68146102b8575f80fd5b8063095ea7b3116101af578063095ea7b31461023d57806318160ddd1461025257806323b872dd146102645780632f745c5914610277575f80fd5b806301ffc9a7146101d557806306fdde03146101fd578063081812fc14610212575b5f80fd5b6101e86101e3366004611b52565b61042e565b60405190151581526020015b60405180910390f35b61020561043e565b6040516101f49190611bc1565b610225610220366004611bd3565b6104cd565b6040516001600160a01b0390911681526020016101f4565b61025061024b366004611c00565b6104f4565b005b6008545b6040519081526020016101f4565b610250610272366004611c28565b610503565b610256610285366004611c00565b610591565b6102566105f4565b6102566102a0366004611c61565b610602565b6102506102b3366004611c28565b610633565b6102506102c6366004611bd3565b610652565b6102566102d9366004611bd3565b61065d565b6102506102ec366004611c7a565b6106b2565b6102506102ff366004611cf6565b6106c7565b610225610312366004611bd3565b61078d565b610256610325366004611c61565b610797565b6102506107dc565b600e54610256565b610256610348366004611c61565b6001600160a01b03165f908152600f602052604090205490565b61036a6107ef565b6040516101f49796959493929190611d5b565b600a546001600160a01b0316610225565b61025061039c366004611dfe565b610831565b6102056109ae565b6102506103b7366004611e4e565b6109bd565b6102506103ca366004611e93565b6109c8565b6102056103dd366004611bd3565b6109df565b6102506103f0366004611cf6565b610a6c565b6101e8610403366004611f68565b610be5565b610250610416366004611c61565b610c12565b610250610429366004611f90565b610c4f565b5f61043882610cc8565b92915050565b60605f805461044c90611fe4565b80601f016020809104026020016040519081016040528092919081815260200182805461047890611fe4565b80156104c35780601f1061049a576101008083540402835291602001916104c3565b820191905f5260205f20905b8154815290600101906020018083116104a657829003601f168201915b5050505050905090565b5f6104d782610cec565b505f828152600460205260409020546001600160a01b0316610438565b6104ff828233610d24565b5050565b6001600160a01b03821661053157604051633250574960e11b81525f60048201526024015b60405180910390fd5b5f61053d838333610d31565b9050836001600160a01b0316816001600160a01b03161461058b576040516364283d7b60e01b81526001600160a01b0380861660048301526024820184905282166044820152606401610528565b50505050565b5f61059b83610797565b82106105cc5760405163295f44f760e21b81526001600160a01b038416600482015260248101839052604401610528565b506001600160a01b03919091165f908152600660209081526040808320938352929052205490565b5f6105fd610d45565b905090565b5f61060b610e6e565b600e80545f918261061b83612030565b91905055905061062b8382610e9b565b90505b919050565b61064d83838360405180602001604052805f8152506109c8565b505050565b6104ff5f8233610d31565b5f61066760085490565b821061068f5760405163295f44f760e21b81525f600482015260248101839052604401610528565b600882815481106106a2576106a2612048565b905f5260205f2001549050919050565b6106ba610e6e565b600d61064d8284836120a1565b6001600160a01b0386166107115760405162461bcd60e51b8152602060048201526011602482015270125b9d985b1a59081c9958da5c1a595b9d607a1b6044820152606401610528565b866001600160a01b03166107248661078d565b6001600160a01b03161461076a5760405162461bcd60e51b815260206004820152600d60248201526c24b73b30b634b21037bbb732b960991b6044820152606401610528565b61077987338787878787610a6c565b610784878787610633565b50505050505050565b5f61043882610cec565b5f6001600160a01b0382166107c1576040516322718ad960e21b81525f6004820152602401610528565b506001600160a01b03165f9081526003602052604090205490565b6107e4610e6e565b6107ed5f610eb4565b565b5f6060805f805f6060610800610f05565b610808610f32565b604080515f80825260208201909252600f60f81b9b939a50919850469750309650945092509050565b8342111561085257604051630819bdcd60e01b815260040160405180910390fd5b6001600160a01b038781165f818152600f602090815260408083205481517f47ab88482c90e4bb94b82a947ae78fa91fb25de1469ab491f4c15b9a0a2677ee8185015280830195909552948b166060850152891515608085015260a0840185905260c08085018a90528151808603909101815260e090940190528251920191909120906108de82610f5f565b90505f6108ed82888888610f8b565b90508a6001600160a01b0316816001600160a01b03161461092157604051632057875960e21b815260040160405180910390fd5b61092c8b8b8b610fb7565b896001600160a01b03168b6001600160a01b03167f03e33ac53cf9c69eb8f73754e40036934f96370bf598adba9d82231ddb9b04778b604051610973911515815260200190565b60405180910390a361098684600161215c565b6001600160a01b03909b165f908152600f602052604090209a909a5550505050505050505050565b60606001805461044c90611fe4565b6104ff338383610fb7565b6109d3848484610503565b61058b84848484611055565b60605f6109eb8361078d565b6001600160a01b031603610a125760405163d872946b60e01b815260040160405180910390fd5b5f600d8054610a2090611fe4565b905011610a3b5760405180602001604052805f815250610438565b600d610a468361117b565b604051602001610a5792919061216f565b60405160208183030381529060405292915050565b83421115610a8d57604051630819bdcd60e01b815260040160405180910390fd5b6001600160a01b038781165f818152600f602090815260408083205481517f48d39b37a35214940203bbbd4f383519797769b13d936f387d89430afef276888185015280830195909552948b166060850152608084018a905260a0840185905260c08085018a90528151808603909101815260e09094019052825192019190912090610b1882610f5f565b90505f610b2782888888610f8b565b90508a6001600160a01b0316816001600160a01b031614610b5b57604051632057875960e21b815260040160405180910390fd5b8a6001600160a01b0316610b6e8a61078d565b6001600160a01b031614610b9557604051632057875960e21b815260040160405180910390fd5b610ba08a8a8d610d24565b896001600160a01b03168b6001600160a01b03167f1de9b1f4277253dc9ecd0dcf53c796ecb43ff6fa66d9f49e0ac00c8ed2dd43268b60405161097391815260200190565b6001600160a01b039182165f90815260056020908152604080832093909416825291909152205460ff1690565b610c1a610e6e565b6001600160a01b038116610c4357604051631e4fbdf760e01b81525f6004820152602401610528565b610c4c81610eb4565b50565b856001600160a01b0316610c628661078d565b6001600160a01b031614610ca85760405162461bcd60e51b815260206004820152600d60248201526c24b73b30b634b21037bbb732b960991b6044820152606401610528565b610cb786338787878787610a6c565b610cc085610652565b505050505050565b5f6001600160e01b0319821663780e9d6360e01b148061043857506104388261120b565b5f818152600260205260408120546001600160a01b03168061062b57604051637e27328960e01b815260048101849052602401610528565b61064d838383600161125a565b5f610d3d84848461135e565b949350505050565b5f306001600160a01b037f000000000000000000000000000000000000000000000000000000000000000016148015610d9d57507f000000000000000000000000000000000000000000000000000000000000000046145b15610dc757507f000000000000000000000000000000000000000000000000000000000000000090565b6105fd604080517f8b73c3c69bb8fe3d512ecc4cf759cc79239f7b179b0ffacaa9a75d522b39400f60208201527f0000000000000000000000000000000000000000000000000000000000000000918101919091527f000000000000000000000000000000000000000000000000000000000000000060608201524660808201523060a08201525f9060c00160405160208183030381529060405280519060200120905090565b600a546001600160a01b031633146107ed5760405163118cdaa760e01b8152336004820152602401610528565b6104ff828260405180602001604052805f815250611429565b600a80546001600160a01b038381166001600160a01b0319831681179093556040519116919082907f8be0079c531659141344cd1fd0a4f28419497f9722a3daafe3b4186f6b6457e0905f90a35050565b60606105fd7f0000000000000000000000000000000000000000000000000000000000000000600b61143f565b60606105fd7f0000000000000000000000000000000000000000000000000000000000000000600c61143f565b5f610438610f6b610d45565b8360405161190160f01b8152600281019290925260228201526042902090565b5f805f80610f9b888888886114e8565b925092509250610fab82826115b0565b50909695505050505050565b6001600160a01b038216610fe957604051630b61174360e31b81526001600160a01b0383166004820152602401610528565b6001600160a01b038381165f81815260056020908152604080832094871680845294825291829020805460ff191686151590811790915591519182527f17307eab39ab6107e8899845ad3d59bd9653f200f220920489ca2b5937696c31910160405180910390a3505050565b6001600160a01b0383163b1561058b57604051630a85bd0160e11b81526001600160a01b0384169063150b7a02906110979033908890879087906004016121f2565b6020604051808303815f875af19250505080156110d1575060408051601f3d908101601f191682019092526110ce9181019061222e565b60015b611138573d8080156110fe576040519150601f19603f3d011682016040523d82523d5f602084013e611103565b606091505b5080515f0361113057604051633250574960e11b81526001600160a01b0385166004820152602401610528565b805181602001fd5b6001600160e01b03198116630a85bd0160e11b1461117457604051633250574960e11b81526001600160a01b0385166004820152602401610528565b5050505050565b60605f61118783611668565b60010190505f8167ffffffffffffffff8111156111a6576111a6611e7f565b6040519080825280601f01601f1916602001820160405280156111d0576020820181803683370190505b5090508181016020015b5f19016f181899199a1a9b1b9c1cb0b131b232b360811b600a86061a8153600a85049450846111da57509392505050565b5f6001600160e01b031982166380ac58cd60e01b148061123b57506001600160e01b03198216635b5e139f60e01b145b8061043857506301ffc9a760e01b6001600160e01b0319831614610438565b808061126e57506001600160a01b03821615155b1561132f575f61127d84610cec565b90506001600160a01b038316158015906112a95750826001600160a01b0316816001600160a01b031614155b80156112bc57506112ba8184610be5565b155b156112e55760405163a9fbf51f60e01b81526001600160a01b0384166004820152602401610528565b811561132d5783856001600160a01b0316826001600160a01b03167f8c5be1e5ebec7d5bd14f71427d1e84f3dd0314c0f7b2291e5b200ac8c7c3b92560405160405180910390a45b505b50505f90815260046020526040902080546001600160a01b0319166001600160a01b0392909216919091179055565b5f8061136b85858561173f565b90506001600160a01b0381166113c7576113c284600880545f838152600960205260408120829055600182018355919091527ff3f7a9fe364faab93b216da50a3214154f22a0a2b415b23a84c8169e8b636ee30155565b6113ea565b846001600160a01b0316816001600160a01b0316146113ea576113ea8185611831565b6001600160a01b03851661140657611401846118be565b610d3d565b846001600160a01b0316816001600160a01b031614610d3d57610d3d8585611965565b61143383836119b3565b61064d5f848484611055565b606060ff83146114595761145283611a14565b9050610438565b81805461146590611fe4565b80601f016020809104026020016040519081016040528092919081815260200182805461149190611fe4565b80156114dc5780601f106114b3576101008083540402835291602001916114dc565b820191905f5260205f20905b8154815290600101906020018083116114bf57829003601f168201915b50505050509050610438565b5f80807f7fffffffffffffffffffffffffffffff5d576e7357a4501ddfe92f46681b20a084111561152157505f915060039050826115a6565b604080515f808252602082018084528a905260ff891692820192909252606081018790526080810186905260019060a0016020604051602081039080840390855afa158015611572573d5f803e3d5ffd5b5050604051601f1901519150506001600160a01b03811661159d57505f9250600191508290506115a6565b92505f91508190505b9450945094915050565b5f8260038111156115c3576115c3612249565b036115cc575050565b60018260038111156115e0576115e0612249565b036115fe5760405163f645eedf60e01b815260040160405180910390fd5b600282600381111561161257611612612249565b036116335760405163fce698f760e01b815260048101829052602401610528565b600382600381111561164757611647612249565b036104ff576040516335e2f38360e21b815260048101829052602401610528565b5f8072184f03e93ff9f4daa797ed6e38ed64bf6a1f0160401b83106116a65772184f03e93ff9f4daa797ed6e38ed64bf6a1f0160401b830492506040015b6d04ee2d6d415b85acef810000000083106116d2576d04ee2d6d415b85acef8100000000830492506020015b662386f26fc1000083106116f057662386f26fc10000830492506010015b6305f5e1008310611708576305f5e100830492506008015b612710831061171c57612710830492506004015b6064831061172e576064830492506002015b600a831061062b5760010192915050565b5f828152600260205260408120546001600160a01b039081169083161561176b5761176b818486611a51565b6001600160a01b038116156117a5576117865f855f8061125a565b6001600160a01b0381165f90815260036020526040902080545f190190555b6001600160a01b038516156117d3576001600160a01b0385165f908152600360205260409020805460010190555b5f8481526002602052604080822080546001600160a01b0319166001600160a01b0389811691821790925591518793918516917fddf252ad1be2c89b69c2b068fc378daa952ba7f163c4a11628f55a4df523b3ef91a4949350505050565b5f61183b83610797565b5f8381526007602052604090205490915080821461188c576001600160a01b0384165f9081526006602090815260408083208584528252808320548484528184208190558352600790915290208190555b505f9182526007602090815260408084208490556001600160a01b039094168352600681528383209183525290812055565b6008545f906118cf9060019061225d565b5f83815260096020526040812054600880549394509092849081106118f6576118f6612048565b905f5260205f2001549050806008838154811061191557611915612048565b5f91825260208083209091019290925582815260099091526040808220849055858252812055600880548061194c5761194c612270565b600190038181905f5260205f20015f9055905550505050565b5f600161197184610797565b61197b919061225d565b6001600160a01b039093165f908152600660209081526040808320868452825280832085905593825260079052919091209190915550565b6001600160a01b0382166119dc57604051633250574960e11b81525f6004820152602401610528565b5f6119e883835f610d31565b90506001600160a01b0381161561064d576040516339e3563760e11b81525f6004820152602401610528565b60605f611a2083611ab5565b6040805160208082528183019092529192505f91906020820181803683375050509182525060208101929092525090565b611a5c838383611adc565b61064d576001600160a01b038316611a8a57604051637e27328960e01b815260048101829052602401610528565b60405163177e802f60e01b81526001600160a01b038316600482015260248101829052604401610528565b5f60ff8216601f81111561062b57604051632cd44ac360e21b815260040160405180910390fd5b5f6001600160a01b03831615801590610d3d5750826001600160a01b0316846001600160a01b03161480611b155750611b158484610be5565b80610d3d5750505f908152600460205260409020546001600160a01b03908116911614919050565b6001600160e01b031981168114610c4c575f80fd5b5f60208284031215611b62575f80fd5b8135611b6d81611b3d565b9392505050565b5f5b83811015611b8e578181015183820152602001611b76565b50505f910152565b5f8151808452611bad816020860160208601611b74565b601f01601f19169290920160200192915050565b602081525f611b6d6020830184611b96565b5f60208284031215611be3575f80fd5b5035919050565b80356001600160a01b038116811461062e575f80fd5b5f8060408385031215611c11575f80fd5b611c1a83611bea565b946020939093013593505050565b5f805f60608486031215611c3a575f80fd5b611c4384611bea565b9250611c5160208501611bea565b9150604084013590509250925092565b5f60208284031215611c71575f80fd5b611b6d82611bea565b5f8060208385031215611c8b575f80fd5b823567ffffffffffffffff80821115611ca2575f80fd5b818501915085601f830112611cb5575f80fd5b813581811115611cc3575f80fd5b866020828501011115611cd4575f80fd5b60209290920196919550909350505050565b803560ff8116811461062e575f80fd5b5f805f805f805f60e0888a031215611d0c575f80fd5b611d1588611bea565b9650611d2360208901611bea565b95506040880135945060608801359350611d3f60808901611ce6565b925060a0880135915060c0880135905092959891949750929550565b60ff60f81b881681525f602060e081840152611d7a60e084018a611b96565b8381036040850152611d8c818a611b96565b606085018990526001600160a01b038816608086015260a0850187905284810360c086015285518082528387019250908301905f5b81811015611ddd57835183529284019291840191600101611dc1565b50909c9b505050505050505050505050565b8035801515811461062e575f80fd5b5f805f805f805f60e0888a031215611e14575f80fd5b611e1d88611bea565b9650611e2b60208901611bea565b9550611e3960408901611def565b945060608801359350611d3f60808901611ce6565b5f8060408385031215611e5f575f80fd5b611e6883611bea565b9150611e7660208401611def565b90509250929050565b634e487b7160e01b5f52604160045260245ffd5b5f805f8060808587031215611ea6575f80fd5b611eaf85611bea565b9350611ebd60208601611bea565b925060408501359150606085013567ffffffffffffffff80821115611ee0575f80fd5b818701915087601f830112611ef3575f80fd5b813581811115611f0557611f05611e7f565b604051601f8201601f19908116603f01168101908382118183101715611f2d57611f2d611e7f565b816040528281528a6020848701011115611f45575f80fd5b826020860160208301375f60208483010152809550505050505092959194509250565b5f8060408385031215611f79575f80fd5b611f8283611bea565b9150611e7660208401611bea565b5f805f805f8060c08789031215611fa5575f80fd5b611fae87611bea565b95506020870135945060408701359350611fca60608801611ce6565b92506080870135915060a087013590509295509295509295565b600181811c90821680611ff857607f821691505b60208210810361201657634e487b7160e01b5f52602260045260245ffd5b50919050565b634e487b7160e01b5f52601160045260245ffd5b5f600182016120415761204161201c565b5060010190565b634e487b7160e01b5f52603260045260245ffd5b601f82111561064d575f81815260208120601f850160051c810160208610156120825750805b601f850160051c820191505b81811015610cc05782815560010161208e565b67ffffffffffffffff8311156120b9576120b9611e7f565b6120cd836120c78354611fe4565b8361205c565b5f601f8411600181146120fe575f85156120e75750838201355b5f19600387901b1c1916600186901b178355611174565b5f83815260209020601f19861690835b8281101561212e578685013582556020948501946001909201910161210e565b508682101561214a575f1960f88860031b161c19848701351681555b505060018560011b0183555050505050565b808201808211156104385761043861201c565b5f80845461217c81611fe4565b6001828116801561219457600181146121a9576121d5565b60ff19841687528215158302870194506121d5565b885f526020805f205f5b858110156121cc5781548a8201529084019082016121b3565b50505082870194505b5050505083516121e9818360208801611b74565b01949350505050565b6001600160a01b03858116825284166020820152604081018390526080606082018190525f9061222490830184611b96565b9695505050505050565b5f6020828403121561223e575f80fd5b8151611b6d81611b3d565b634e487b7160e01b5f52602160045260245ffd5b818103818111156104385761043861201c565b634e487b7160e01b5f52603160045260245ffdfea264697066735822122029ef60f865adf43ec665d3afea667cf03c6533d9ff4d9156130f4248592dfba864736f6c63430008140033",
    "linkReferences": {}
  },
  "methodIdentifiers": {
    "DOMAIN_SEPARATOR()": "3644e515",
    "approve(address,uint256)": "095ea7b3",
    "balanceOf(address)": "70a08231",
    "burn(uint256)": "42966c68",
    "burnWithPermit(address,uint256,uint256,uint8,bytes32,bytes32)": "f7dedf5e",
    "eip712Domain()": "84b0196e",
    "getApproved(uint256)": "081812fc",
    "isApprovedForAll(address,address)": "e985e9c5",
    "name()": "06fdde03",
    "nextTokenId()": "75794a3c",
    "nonces(address)": "7ecebe00",
    "owner()": "8da5cb5b",
    "ownerOf(uint256)": "6352211e",
    "permit(address,address,uint256,uint256,uint8,bytes32,bytes32)": "d505accf",
    "permitForAll(address,address,bool,uint256,uint8,bytes32,bytes32)": "9032c726",
    "renounceOwnership()": "715018a6",
    "safeMint(address)": "40d097c3",
    "safeTransferFrom(address,address,uint256)": "42842e0e",
    "safeTransferFrom(address,address,uint256,bytes)": "b88d4fde",
    "setApprovalForAll(address,bool)": "a22cb465",
    "setBaseURI(string)": "55f804b3",
    "supportsInterface(bytes4)": "01ffc9a7",
    "symbol()": "95d89b41",
    "tokenByIndex(uint256)": "4f6ccce7",
    "tokenOfOwnerByIndex(address,uint256)": "2f745c59",
    "tokenURI(uint256)": "c87b56dd",
    "totalSupply()": "18160ddd",
    "transferFrom(address,address,uint256)": "23b872dd",
    "transferOwnership(address)": "f2fde38b",
    "transferWithPermit(address,address,uint256,uint256,uint8,bytes32,bytes32)": "605629d6"
  },
  "id": 41
}